:100000000C9434000C9451000C9451000C94510049
:100010000C9451000C9451000C9451000C9451001C
:100020000C9451000C9451000C9451000C9451000C
:100030000C9451000C9451000C9451000C945100FC
:100040000C9451000C9451000C9451000C945100EC
:100050000C9451000C9451000C9451000C945100DC
:100060000C9451000C94510011241FBECFEFD8E026
:10007000DEBFCDBF11E0A0E0B1E0E2EFF2E002C0F0
:1000800005900D92AA30B107D9F721E0AAE0B1E0BE
:1000900001C01D92AE30B207E1F70E942B010C9413
:1000A00077010C94000080910C0190910D019093C8
:1000B0000B0180930A014FEF45B9E0910A01F091DD
:1000C0000B019F01ADECBCEC0E94680196958795F1
:1000D00096958795969587959C01220F331F880FDB
:1000E000991F880F991F880F991F820F931F9F01D7
:1000F000281B390BF901E050FF4F80818BB987EF46
:1001000085B920910A0130910B010E9468019695F2
:100110008795969587959695879590930B018093F3
:100120000A0145B9E0910A01F0910B019F010E947B
:1001300068019695879596958795969587959C01E4
:10014000220F331F880F991F880F991F880F991F3F
:10015000820F931F9F01281B390BF901E050FF4FBD
:1001600080818BB98BEF85B920910A0130910B0109
:100170000E9468019695879596958795969587959F
:1001800090930B0180930A0145B9E0910A01F09127
:100190000B019F010E94680196958795969587951A
:1001A000969587959C01220F331F880F991F880F02
:1001B000991F880F991F820F931F9F01281B390BCE
:1001C000F901E050FF4F80818BB98DEF85B9209107
:1001D0000A0130910B010E946801969587959695CA
:1001E00087959695879590930B0180930A0145B961
:1001F00040910A0150910B019A010E946801969565
:10020000879596958795969587959C01220F331F24
:10021000880F991F880F991F880F991F820F931FAE
:100220009A01281B390BF901E050FF4F80818BB9EF
:100230008EEF85B920910A0130910B010E9468016F
:1002400096958795969587959695879590930B01AA
:1002500080930A0108958FEF8AB98FE084B9D0E0C6
:10026000C0E01C99C1E01C9916C0C130A1F4809176
:100270000C0190910D018F3027E2920730F010921F
:100280000D0110920C01C0E006C0019690930D0183
:1002900080930C01C0E01D99D1E01D9916C0D130AA
:1002A000A1F480910C0190910D01009741F48FE031
:1002B00097E290930D0180930C01D0E006C0019766
:1002C00090930D0180930C01D0E00E945300C9CFA0
:1002D000A29FB001B39FC001A39F700D811D112487
:1002E000911DB29F700D811D1124911D0895F894E8
:0202F000FFCF3E
:0A02F2003F065B4F666D7D077F6FCE
:00000001FF
